:020000040800F2
:1000000000500020B9030008A5030008A70300085A
:10001000A9030008AB030008AD03000800000000BE
:10002000000000000000000000000000AF03000816
:10003000B103000800000000B3030008B503000886
:10004000010400080104000801040008010400087C
:10005000010400080104000801040008010400086C
:10006000010400080104000801040008010400085C
:10007000010400080104000801040008010400084C
:10008000010400080104000801040008010400083C
:10009000010400080104000801040008010400082C
:1000A000010400080104000801040008010400081C
:1000B000010400080104000801040008010400080C
:1000C00001040008010400080104000801040008FC
:1000D00001040008010400080104000801040008EC
:1000E00001040008010400080104000800000000E9
:1000F0000000000000000000000000000000000000
:0C01000000000000000000005FF808F1A3
:10010C0010B5054C237833B9044B13B10448AFF345
:10011C0000800123237010BD0000002000000000AF
:10012C000C01000808B5034B1BB103490348AFF39E
:10013C00008008BD00000000040000200C01000835
:10014C00F0B4CB7803F00F02154613F0100F01D06A
:10015C008D7815430B78E3B10668002301E042610A
:10016C000133072B14D801229A400C8832EA04047C
:10017C00F6D19C000F27A74026EA070605FA04F4DF
:10018C002643CC78282CEAD0482CE9D10261E7E749
:10019C0006600B88FF2B20D94668002302E04261E1
:1001AC0015E00133072B17D803F108040122A240F4
:1001BC000C8832EA0404F4D19C000F27A74026EAED
:1001CC00070605FA04F42643CC78282CE7D0CC7823
:1001DC00482CE6D10261E4E74660F0BC70478368C6
:1001EC00194201D001207047002070470AB101610B
:1001FC00704741617047000021B1054A9369034380
:10020C0093617047024A936923EA00039361704734
:10021C000010024082B00023019300932C4A136813
:10022C0043F4803313602A4B1B6803F400330093B0
:10023C00019B01330193009B1BB9019BB3F5A06F8C
:10024C00F1D1234B1B6813F4003F06D0012300931C
:10025C00009B012B04D002B0704700230093F7E7FA
:10026C001C4B1A6842F010021A601A6822F0030242
:10027C001A601A6842F002021A60A3F580535A6899
:10028C005A605A685A605A6842F480625A605A68D6
:10029C0022F47C125A605A6842F4E8125A601A68C6
:1002AC0042F080721A600A4B1B6813F0007FFAD080
:1002BC00074B5A6822F003025A605A6842F0020255
:1002CC005A60034B5B6803F00C03082BF9D1C2E7AF
:1002DC00001002400020024008B5FFF79BFF08BD4C
:1002EC0008B5104B1A6842F001021A6059680E4AA0
:1002FC000A405A601A6822F0847222F480321A6022
:10030C001A6822F480221A605A6822F4FE025A609B
:10031C004FF41F029A60FFF7DFFF044B4FF00062AF
:10032C009A6008BD001002400000FFF800ED00E0EC
:10033C00002200E00132824206DA0023B3F57A7F14
:10034C00F8DA00BF0133F9E77047000000B583B05D
:10035C0001210420FFF750FF10238DF807300223F2
:10036C00ADF8043001238DF8063001A90948FFF7D8
:10037C00E7FE084C02212046FFF731FFB0FA80F26D
:10038C00520902212046FFF731FF41F28830FFF776
:10039C00CFFFEEE7000801407047FEE7FEE7FEE7FF
:1003AC00FEE770477047704770470000002103E07C
:1003BC000B4B5B58435004310A480B4B42189A4282
:1003CC00F6D30A4A02E0002342F8043B084B9A4257
:1003DC00F9D3FFF785FF00F00FF8FFF7B7FF704771
:1003EC006C04000800000020000000200000002029
:1003FC001C000020FEE7000070B500260C4D0D4CD3
:10040C00641BA410A64209D100F01AF800260A4D6C
:10041C000A4C641BA410A64205D170BD55F8043BD0
:10042C0098470136EEE755F8043B98470136F2E75A
:10043C0064040008640400086404000868040008EC
:10044C00F8B500BFF8BC08BC9E467047F8B500BFB5
:08045C00F8BC08BC9E46704785
:04046400310100085A
:040468000D0100087A
:04000005080003B933
:00000001FF
